{
  "_format": "hh-sol-artifact-1",
  "contractName": "ClassManager",
  "sourceName": "sol/ClassManager.sol",
  "abi": [
    {
      "anonymous": false,
      "inputs": [
        {
          "indexed": true,
          "internalType": "string",
          "name": "classId",
          "type": "string"
        },
        {
          "indexed": true,
          "internalType": "address",
          "name": "teacher",
          "type": "address"
        },
        {
          "indexed": false,
          "internalType": "uint256",
          "name": "timestamp",
          "type": "uint256"
        }
      ],
      "name": "ClassClosed",
      "type": "event"
    },
    {
      "anonymous": false,
      "inputs": [
        {
          "indexed": true,
          "internalType": "string",
          "name": "classId",
          "type": "string"
        },
        {
          "indexed": true,
          "internalType": "address",
          "name": "teacher",
          "type": "address"
        },
        {
          "indexed": false,
          "internalType": "uint256",
          "name": "timestamp",
          "type": "uint256"
        }
      ],
      "name": "ClassCreated",
      "type": "event"
    },
    {
      "anonymous": false,
      "inputs": [
        {
          "indexed": true,
          "internalType": "string",
          "name": "classId",
          "type": "string"
        },
        {
          "indexed": true,
          "internalType": "address",
          "name": "student",
          "type": "address"
        },
        {
          "indexed": false,
          "internalType": "bool",
          "name": "allowed",
          "type": "bool"
        },
        {
          "indexed": true,
          "internalType": "address",
          "name": "teacher",
          "type": "address"
        }
      ],
      "name": "PermissionUpdated",
      "type": "event"
    },
    {
      "anonymous": false,
      "inputs": [
        {
          "indexed": true,
          "internalType": "string",
          "name": "classId",
          "type": "string"
        },
        {
          "indexed": true,
          "internalType": "address",
          "name": "student",
          "type": "address"
        },
        {
          "indexed": true,
          "internalType": "address",
          "name": "teacher",
          "type": "address"
        }
      ],
      "name": "StudentAdded",
      "type": "event"
    },
    {
      "anonymous": false,
      "inputs": [
        {
          "indexed": true,
          "internalType": "string",
          "name": "classId",
          "type": "string"
        },
        {
          "indexed": true,
          "internalType": "address",
          "name": "student",
          "type": "address"
        },
        {
          "indexed": true,
          "internalType": "address",
          "name": "approvedBy",
          "type": "address"
        },
        {
          "indexed": false,
          "internalType": "uint256",
          "name": "timestamp",
          "type": "uint256"
        }
      ],
      "name": "StudentApproved",
      "type": "event"
    },
    {
      "anonymous": false,
      "inputs": [
        {
          "indexed": true,
          "internalType": "string",
          "name": "classId",
          "type": "string"
        },
        {
          "indexed": true,
          "internalType": "address",
          "name": "student",
          "type": "address"
        },
        {
          "indexed": true,
          "internalType": "address",
          "name": "teacher",
          "type": "address"
        }
      ],
      "name": "StudentRemoved",
      "type": "event"
    },
    {
      "inputs": [
        {
          "internalType": "string",
          "name": "classId",
          "type": "string"
        },
        {
          "internalType": "address",
          "name": "student",
          "type": "address"
        }
      ],
      "name": "addStudent",
      "outputs": [],
      "stateMutability": "nonpayable",
      "type": "function"
    },
    {
      "inputs": [
        {
          "internalType": "uint256",
          "name": "",
          "type": "uint256"
        }
      ],
      "name": "allClassIds",
      "outputs": [
        {
          "internalType": "string",
          "name": "",
          "type": "string"
        }
      ],
      "stateMutability": "view",
      "type": "function"
    },
    {
      "inputs": [
        {
          "internalType": "string",
          "name": "",
          "type": "string"
        },
        {
          "internalType": "address",
          "name": "",
          "type": "address"
        }
      ],
      "name": "allowedStudents",
      "outputs": [
        {
          "internalType": "bool",
          "name": "",
          "type": "bool"
        }
      ],
      "stateMutability": "view",
      "type": "function"
    },
    {
      "inputs": [
        {
          "internalType": "string",
          "name": "",
          "type": "string"
        },
        {
          "internalType": "address",
          "name": "",
          "type": "address"
        }
      ],
      "name": "approvalApprover",
      "outputs": [
        {
          "internalType": "address",
          "name": "",
          "type": "address"
        }
      ],
      "stateMutability": "view",
      "type": "function"
    },
    {
      "inputs": [
        {
          "internalType": "string",
          "name": "",
          "type": "string"
        },
        {
          "internalType": "address",
          "name": "",
          "type": "address"
        }
      ],
      "name": "approvalTimestamp",
      "outputs": [
        {
          "internalType": "uint256",
          "name": "",
          "type": "uint256"
        }
      ],
      "stateMutability": "view",
      "type": "function"
    },
    {
      "inputs": [
        {
          "internalType": "string",
          "name": "classId",
          "type": "string"
        },
        {
          "internalType": "address",
          "name": "student",
          "type": "address"
        }
      ],
      "name": "approveAndAddStudent",
      "outputs": [],
      "stateMutability": "nonpayable",
      "type": "function"
    },
    {
      "inputs": [
        {
          "internalType": "string",
          "name": "",
          "type": "string"
        },
        {
          "internalType": "address",
          "name": "",
          "type": "address"
        }
      ],
      "name": "approvedStudents",
      "outputs": [
        {
          "internalType": "bool",
          "name": "",
          "type": "bool"
        }
      ],
      "stateMutability": "view",
      "type": "function"
    },
    {
      "inputs": [
        {
          "internalType": "string",
          "name": "",
          "type": "string"
        }
      ],
      "name": "classExists",
      "outputs": [
        {
          "internalType": "bool",
          "name": "",
          "type": "bool"
        }
      ],
      "stateMutability": "view",
      "type": "function"
    },
    {
      "inputs": [
        {
          "internalType": "string",
          "name": "",
          "type": "string"
        }
      ],
      "name": "classes",
      "outputs": [
        {
          "internalType": "string",
          "name": "classId",
          "type": "string"
        },
        {
          "internalType": "address",
          "name": "teacher",
          "type": "address"
        },
        {
          "internalType": "enum ClassManager.ClassStatus",
          "name": "status",
          "type": "uint8"
        },
        {
          "internalType": "uint256",
          "name": "createdAt",
          "type": "uint256"
        },
        {
          "internalType": "uint256",
          "name": "closedAt",
          "type": "uint256"
        }
      ],
      "stateMutability": "view",
      "type": "function"
    },
    {
      "inputs": [
        {
          "internalType": "string",
          "name": "classId",
          "type": "string"
        }
      ],
      "name": "closeClass",
      "outputs": [],
      "stateMutability": "nonpayable",
      "type": "function"
    },
    {
      "inputs": [
        {
          "internalType": "string",
          "name": "classId",
          "type": "string"
        }
      ],
      "name": "createClass",
      "outputs": [],
      "stateMutability": "nonpayable",
      "type": "function"
    },
    {
      "inputs": [
        {
          "internalType": "string",
          "name": "classId",
          "type": "string"
        },
        {
          "internalType": "address",
          "name": "student",
          "type": "address"
        }
      ],
      "name": "getApprovalInfo",
      "outputs": [
        {
          "internalType": "bool",
          "name": "approved",
          "type": "bool"
        },
        {
          "internalType": "uint256",
          "name": "timestamp",
          "type": "uint256"
        },
        {
          "internalType": "address",
          "name": "approver",
          "type": "address"
        }
      ],
      "stateMutability": "view",
      "type": "function"
    },
    {
      "inputs": [],
      "name": "getClassCount",
      "outputs": [
        {
          "internalType": "uint256",
          "name": "count",
          "type": "uint256"
        }
      ],
      "stateMutability": "view",
      "type": "function"
    },
    {
      "inputs": [
        {
          "internalType": "uint256",
          "name": "index",
          "type": "uint256"
        }
      ],
      "name": "getClassIdAt",
      "outputs": [
        {
          "internalType": "string",
          "name": "classId",
          "type": "string"
        }
      ],
      "stateMutability": "view",
      "type": "function"
    },
    {
      "inputs": [
        {
          "internalType": "string",
          "name": "classId",
          "type": "string"
        }
      ],
      "name": "getClassInfo",
      "outputs": [
        {
          "components": [
            {
              "internalType": "string",
              "name": "classId",
              "type": "string"
            },
            {
              "internalType": "address",
              "name": "teacher",
              "type": "address"
            },
            {
              "internalType": "enum ClassManager.ClassStatus",
              "name": "status",
              "type": "uint8"
            },
            {
              "internalType": "uint256",
              "name": "createdAt",
              "type": "uint256"
            },
            {
              "internalType": "uint256",
              "name": "closedAt",
              "type": "uint256"
            }
          ],
          "internalType": "struct ClassManager.ClassInfo",
          "name": "classInfo",
          "type": "tuple"
        }
      ],
      "stateMutability": "view",
      "type": "function"
    },
    {
      "inputs": [
        {
          "internalType": "string",
          "name": "classId",
          "type": "string"
        },
        {
          "internalType": "address",
          "name": "student",
          "type": "address"
        }
      ],
      "name": "isStudentAllowed",
      "outputs": [
        {
          "internalType": "bool",
          "name": "allowed",
          "type": "bool"
        }
      ],
      "stateMutability": "view",
      "type": "function"
    },
    {
      "inputs": [
        {
          "internalType": "string",
          "name": "classId",
          "type": "string"
        },
        {
          "internalType": "address",
          "name": "student",
          "type": "address"
        }
      ],
      "name": "removeStudent",
      "outputs": [],
      "stateMutability": "nonpayable",
      "type": "function"
    }
  ],
  "bytecode": "0x608060405234801561001057600080fd5b50611b6f806100206000396000f3fe608060405234801561001057600080fd5b506004361061010b5760003560e01c80637b5f6ea6116100a25780638a7dc32b116100715780638a7dc32b1461032c578063ae31a8771461033f578063e58c01c514610363578063e87c5da114610376578063ef315f141461038957600080fd5b80637b5f6ea61461025f57806381f74345146102bb57806388a0e046146102db5780638a695097146102ee57600080fd5b8063375e379f116100de578063375e379f146101c357806356827273146101f1578063568dde741461022c578063632a66551461023f57600080fd5b8063065c7eb614610110578063068172861461014e5780630b01ca3b1461019c57806310468c2f146101ae575b600080fd5b61012361011e3660046116b3565b61039c565b60408051931515845260208401929092526001600160a01b0316908201526060015b60405180910390f35b61018c61015c3660046116b3565b81516020818401810180516001825292820194820194909420919093529091526000908152604090205460ff1681565b6040519015158152602001610145565b6003545b604051908152602001610145565b6101c16101bc3660046116b3565b610450565b005b61018c6101d1366004611711565b805160208183018101805160028252928201919093012091525460ff1681565b6101a06101ff3660046116b3565b81516020818401810180516006825292820194820194909420919093529091526000908152604090205481565b6101c161023a366004611711565b6106ec565b61025261024d36600461174e565b61089a565b60405161014591906117b7565b6102a361026d3660046116b3565b8151602081840181018051600582529282019482019490942091909352909152600090815260409020546001600160a01b031681565b6040516001600160a01b039091168152602001610145565b6102ce6102c9366004611711565b6109a5565b6040516101459190611809565b61018c6102e93660046116b3565b610b35565b61018c6102fc3660046116b3565b81516020818401810180516004825292820194820194909420919093529091526000908152604090205460ff1681565b6101c161033a366004611711565b610bf6565b61035261034d366004611711565b610e55565b60405161014595949392919061186a565b6101c16103713660046116b3565b610f26565b61025261038436600461174e565b61118c565b6101c16103973660046116b3565b611238565b60008060006004856040516103b191906118ae565b9081526040805191829003602090810183206001600160a01b03881660009081529152205460ff16906006906103e89088906118ae565b9081526040805191829003602090810183206001600160a01b0389166000908152915220549060059061041c9089906118ae565b90815260408051602092819003830190206001600160a01b0398891660009081529252902054919790965094169392505050565b8160028160405161046191906118ae565b9081526040519081900360200190205460ff166104995760405162461bcd60e51b8152600401610490906118ca565b60405180910390fd5b336001600160a01b03166000826040516104b391906118ae565b908152604051908190036020019020600101546001600160a01b0316146104ec5760405162461bcd60e51b81526004016104909061190c565b82600080826040516104fe91906118ae565b908152602001604051809103902060010160149054906101000a900460ff16600181111561052e5761052e6117d1565b1461054b5760405162461bcd60e51b81526004016104909061195e565b6001600160a01b0383166105715760405162461bcd60e51b815260040161049090611995565b60018460405161058191906118ae565b90815260408051602092819003830190206001600160a01b0386166000908152925290205460ff16156106025760405162461bcd60e51b815260206004820152602360248201527f436c6173734d616e616765723a2053747564656e7420616c726561647920616460448201526219195960ea1b6064820152608401610490565b6001808560405161061391906118ae565b90815260408051602092819003830181206001600160a01b03881660008181529190945291909120805460ff19169315159390931790925533916106589087906118ae565b604051908190038120907fa52076e190b4c3ba9eabe61d5f02714fc86a09dac84197eb579ae3efc85ded5f90600090a4336001600160a01b0316836001600160a01b0316856040516106aa91906118ae565b60405190819003812060018252907f8c76e0c52acc07f7d9b1b08884ea6e5a3c479b5a7a48e562b24ae8133d869954906020015b60405180910390a450505050565b806002816040516106fd91906118ae565b9081526040519081900360200190205460ff1661072c5760405162461bcd60e51b8152600401610490906118ca565b336001600160a01b031660008260405161074691906118ae565b908152604051908190036020019020600101546001600160a01b03161461077f5760405162461bcd60e51b81526004016104909061190c565b816000808260405161079191906118ae565b908152602001604051809103902060010160149054906101000a900460ff1660018111156107c1576107c16117d1565b146107de5760405162461bcd60e51b81526004016104909061195e565b60016000846040516107f091906118ae565b908152602001604051809103902060010160146101000a81548160ff02191690836001811115610822576108226117d1565b02179055504260008460405161083891906118ae565b90815260405190819003602001812060030191909155339061085b9085906118ae565b604051908190038120428252907f646299d40fae618982ec21f1c9f783bde496ba3c635d792d8a61ae68be2762c59060200160405180910390a3505050565b60035460609082106108f85760405162461bcd60e51b815260206004820152602160248201527f436c6173734d616e616765723a20496e646578206f7574206f6620626f756e646044820152607360f81b6064820152608401610490565b6003828154811061090b5761090b6119da565b906000526020600020018054610920906119f0565b80601f016020809104026020016040519081016040528092919081815260200182805461094c906119f0565b80156109995780601f1061096e57610100808354040283529160200191610999565b820191906000526020600020905b81548152906001019060200180831161097c57829003601f168201915b50505050509050919050565b6109d86040805160a081018252606081526000602082018190529091820190815260200160008152602001600081525090565b6002826040516109e891906118ae565b9081526040519081900360200190205460ff16610a175760405162461bcd60e51b8152600401610490906118ca565b600082604051610a2791906118ae565b90815260200160405180910390206040518060a0016040529081600082018054610a50906119f0565b80601f0160208091040260200160405190810160405280929190818152602001828054610a7c906119f0565b8015610ac95780601f10610a9e57610100808354040283529160200191610ac9565b820191906000526020600020905b815481529060010190602001808311610aac57829003601f168201915b50505091835250506001828101546001600160a01b0381166020840152604090920191600160a01b900460ff1690811115610b0657610b066117d1565b6001811115610b1757610b176117d1565b81526002820154602082015260039091015460409091015292915050565b6000600283604051610b4791906118ae565b9081526040519081900360200190205460ff16610b6657506000610bf0565b6001600084604051610b7891906118ae565b908152602001604051809103902060010160149054906101000a900460ff166001811115610ba857610ba86117d1565b03610bb557506000610bf0565b600183604051610bc591906118ae565b90815260408051602092819003830190206001600160a01b0385166000908152925290205460ff1690505b92915050565b600281604051610c0691906118ae565b9081526040519081900360200190205460ff1615610c745760405162461bcd60e51b815260206004820152602560248201527f436c6173734d616e616765723a20436c61737320494420616c72656164792065604482015264786973747360d81b6064820152608401610490565b6000815111610cd45760405162461bcd60e51b815260206004820152602660248201527f436c6173734d616e616765723a20436c6173732049442063616e6e6f7420626560448201526520656d70747960d01b6064820152608401610490565b6040805160a081018252828152336020820152908101600081526020014281526020016000815250600082604051610d0c91906118ae565b90815260405190819003602001902081518190610d299082611a79565b506020820151600180830180546001600160a01b039093166001600160a01b031984168117825560408601519391926001600160a81b03199092161790600160a01b908490811115610d7d57610d7d6117d1565b021790555060608201518160020155608082015181600301559050506001600282604051610dab91906118ae565b908152604051908190036020019020805491151560ff19909216919091179055600380546001810182556000919091527fc2575a0e9e593c00f959f8c92f12db2869c3395a3b0502d05e2516446f71f85b01610e078282611a79565b506040513390610e189083906118ae565b604051908190038120428252907f51e06df403408d7099d1bbec62baa2192368a55b7e4efcc612e59cf6f4f291eb9060200160405180910390a350565b8051602081830181018051600082529282019190930120915280548190610e7b906119f0565b80601f0160208091040260200160405190810160405280929190818152602001828054610ea7906119f0565b8015610ef45780601f10610ec957610100808354040283529160200191610ef4565b820191906000526020600020905b815481529060010190602001808311610ed757829003601f168201915b505050506001830154600284015460039094015492936001600160a01b03821693600160a01b90920460ff1692509085565b81600281604051610f3791906118ae565b9081526040519081900360200190205460ff16610f665760405162461bcd60e51b8152600401610490906118ca565b336001600160a01b0316600082604051610f8091906118ae565b908152604051908190036020019020600101546001600160a01b031614610fb95760405162461bcd60e51b81526004016104909061190c565b8260008082604051610fcb91906118ae565b908152602001604051809103902060010160149054906101000a900460ff166001811115610ffb57610ffb6117d1565b146110185760405162461bcd60e51b81526004016104909061195e565b60018460405161102891906118ae565b90815260408051602092819003830190206001600160a01b0386166000908152925290205460ff166110ab5760405162461bcd60e51b815260206004820152602660248201527f436c6173734d616e616765723a2053747564656e74206e6f7420696e207768696044820152651d195b1a5cdd60d21b6064820152608401610490565b60006001856040516110bd91906118ae565b90815260408051602092819003830181206001600160a01b03881660008181529190945291909120805460ff19169315159390931790925533916111029087906118ae565b604051908190038120907f2ec9d1abd4cf1a1e0d4f33b9fdf60291c03df4db771556247139bf1d49c7ef8990600090a4336001600160a01b0316836001600160a01b03168560405161115491906118ae565b60405190819003812060008252907f8c76e0c52acc07f7d9b1b08884ea6e5a3c479b5a7a48e562b24ae8133d869954906020016106de565b6003818154811061119c57600080fd5b9060005260206000200160009150905080546111b7906119f0565b80601f01602080910402602001604051908101604052809291908181526020018280546111e3906119f0565b80156112305780601f1061120557610100808354040283529160200191611230565b820191906000526020600020905b81548152906001019060200180831161121357829003601f168201915b505050505081565b8160028160405161124991906118ae565b9081526040519081900360200190205460ff166112785760405162461bcd60e51b8152600401610490906118ca565b336001600160a01b031660008260405161129291906118ae565b908152604051908190036020019020600101546001600160a01b0316146112cb5760405162461bcd60e51b81526004016104909061190c565b82600080826040516112dd91906118ae565b908152602001604051809103902060010160149054906101000a900460ff16600181111561130d5761130d6117d1565b1461132a5760405162461bcd60e51b81526004016104909061195e565b6001600160a01b0383166113505760405162461bcd60e51b815260040161049090611995565b60048460405161136091906118ae565b90815260408051602092819003830190206001600160a01b0386166000908152925290205460ff16156113e45760405162461bcd60e51b815260206004820152602660248201527f436c6173734d616e616765723a2053747564656e7420616c72656164792061706044820152651c1c9bdd995960d21b6064820152608401610490565b6001846040516113f491906118ae565b90815260408051602092819003830190206001600160a01b0386166000908152925290205460ff161561147b5760405162461bcd60e51b815260206004820152602960248201527f436c6173734d616e616765723a2053747564656e7420616c72656164792077686044820152681a5d195b1a5cdd195960ba1b6064820152608401610490565b600160048560405161148d91906118ae565b90815260408051602092819003830181206001600160a01b038816600090815293529120805460ff19169215159290921790915533906005906114d19087906118ae565b90815260200160405180910390206000856001600160a01b03166001600160a01b0316815260200190815260200160002060006101000a8154816001600160a01b0302191690836001600160a01b031602179055504260068560405161153791906118ae565b9081526040805191829003602090810183206001600160a01b038816600090815291522091909155600190819061156f9087906118ae565b90815260408051602092819003830181206001600160a01b03881660008181529190945291909120805460ff19169315159390931790925533916115b49087906118ae565b604051908190038120428252907fde1b90a57e3f57f42d524bb21b5ab1b987a190d110802a9a617d364fe63484139060200160405180910390a4336001600160a01b0316836001600160a01b03168560405161065891906118ae565b634e487b7160e01b600052604160045260246000fd5b600082601f83011261163757600080fd5b813567ffffffffffffffff8082111561165257611652611610565b604051601f8301601f19908116603f0116810190828211818310171561167a5761167a611610565b8160405283815286602085880101111561169357600080fd5b836020870160208301376000602085830101528094505050505092915050565b600080604083850312156116c657600080fd5b823567ffffffffffffffff8111156116dd57600080fd5b6116e985828601611626565b92505060208301356001600160a01b038116811461170657600080fd5b809150509250929050565b60006020828403121561172357600080fd5b813567ffffffffffffffff81111561173a57600080fd5b61174684828501611626565b949350505050565b60006020828403121561176057600080fd5b5035919050565b60005b8381101561178257818101518382015260200161176a565b50506000910152565b600081518084526117a3816020860160208601611767565b601f01601f19169290920160200192915050565b6020815260006117ca602083018461178b565b9392505050565b634e487b7160e01b600052602160045260246000fd5b6002811061180557634e487b7160e01b600052602160045260246000fd5b9052565b602081526000825160a0602084015261182560c084018261178b565b905060018060a01b036020850151166040840152604084015161184b60608501826117e7565b5060608401516080840152608084015160a08401528091505092915050565b60a08152600061187d60a083018861178b565b6001600160a01b0387166020840152905061189b60408301866117e7565b6060820193909352608001529392505050565b600082516118c0818460208701611767565b9190910192915050565b60208082526022908201527f436c6173734d616e616765723a20436c61737320646f6573206e6f74206578696040820152611cdd60f21b606082015260800190565b60208082526032908201527f436c6173734d616e616765723a204f6e6c7920746561636865722063616e207060408201527132b93337b936903a3434b99030b1ba34b7b760711b606082015260800190565b6020808252601d908201527f436c6173734d616e616765723a20436c61737320697320636c6f736564000000604082015260600190565b60208082526025908201527f436c6173734d616e616765723a20496e76616c69642073747564656e74206164604082015264647265737360d81b606082015260800190565b634e487b7160e01b600052603260045260246000fd5b600181811c90821680611a0457607f821691505b602082108103611a2457634e487b7160e01b600052602260045260246000fd5b50919050565b601f821115611a7457600081815260208120601f850160051c81016020861015611a515750805b601f850160051c820191505b81811015611a7057828155600101611a5d565b5050505b505050565b815167ffffffffffffffff811115611a9357611a93611610565b611aa781611aa184546119f0565b84611a2a565b602080601f831160018114611adc5760008415611ac45750858301515b600019600386901b1c1916600185901b178555611a70565b600085815260208120601f198616915b82811015611b0b57888601518255948401946001909101908401611aec565b5085821015611b295787850151600019600388901b60f8161c191681555b5050505050600190811b0190555056fea26469706673582212204aeaf044f7a7963bdacbe20c6f02f9562652c776b97ff06dacffdab4c19b276364736f6c63430008130033",
  "linkReferences": {},
  "deployedLinkReferences": {}
}