{
  "_format": "hh-sol-artifact-1",
  "contractName": "ScoreManager",
  "sourceName": "sol/ScoreManager.sol",
  "abi": [
    {
      "inputs": [
        {
          "internalType": "address",
          "name": "_teacher",
          "type": "address"
        },
        {
          "internalType": "address",
          "name": "_classManagerAddress",
          "type": "address"
        }
      ],
      "stateMutability": "nonpayable",
      "type": "constructor"
    },
    {
      "anonymous": false,
      "inputs": [
        {
          "indexed": true,
          "internalType": "string",
          "name": "classId",
          "type": "string"
        },
        {
          "indexed": true,
          "internalType": "address",
          "name": "student",
          "type": "address"
        },
        {
          "indexed": false,
          "internalType": "bytes32",
          "name": "assignmentHash",
          "type": "bytes32"
        },
        {
          "indexed": false,
          "internalType": "uint256",
          "name": "timestamp",
          "type": "uint256"
        }
      ],
      "name": "AssignmentSubmitted",
      "type": "event"
    },
    {
      "anonymous": false,
      "inputs": [
        {
          "indexed": true,
          "internalType": "string",
          "name": "classId",
          "type": "string"
        },
        {
          "indexed": true,
          "internalType": "address",
          "name": "teacher",
          "type": "address"
        }
      ],
      "name": "ClassRegistered",
      "type": "event"
    },
    {
      "anonymous": false,
      "inputs": [
        {
          "indexed": true,
          "internalType": "string",
          "name": "classId",
          "type": "string"
        },
        {
          "indexed": true,
          "internalType": "address",
          "name": "student",
          "type": "address"
        },
        {
          "indexed": false,
          "internalType": "uint256",
          "name": "score",
          "type": "uint256"
        },
        {
          "indexed": true,
          "internalType": "address",
          "name": "recordedBy",
          "type": "address"
        },
        {
          "indexed": false,
          "internalType": "uint256",
          "name": "timestamp",
          "type": "uint256"
        }
      ],
      "name": "ScoreRecorded",
      "type": "event"
    },
    {
      "inputs": [],
      "name": "classManagerAddress",
      "outputs": [
        {
          "internalType": "address",
          "name": "",
          "type": "address"
        }
      ],
      "stateMutability": "view",
      "type": "function"
    },
    {
      "inputs": [
        {
          "internalType": "string",
          "name": "classId",
          "type": "string"
        },
        {
          "internalType": "address",
          "name": "student",
          "type": "address"
        }
      ],
      "name": "getScore",
      "outputs": [
        {
          "internalType": "uint256",
          "name": "score",
          "type": "uint256"
        },
        {
          "internalType": "uint256",
          "name": "recordedAt",
          "type": "uint256"
        },
        {
          "internalType": "address",
          "name": "recordedBy",
          "type": "address"
        }
      ],
      "stateMutability": "view",
      "type": "function"
    },
    {
      "inputs": [
        {
          "internalType": "string",
          "name": "classId",
          "type": "string"
        },
        {
          "internalType": "address",
          "name": "student",
          "type": "address"
        }
      ],
      "name": "getSubmission",
      "outputs": [
        {
          "internalType": "bytes32",
          "name": "assignmentHash",
          "type": "bytes32"
        },
        {
          "internalType": "uint256",
          "name": "submittedAt",
          "type": "uint256"
        },
        {
          "internalType": "bool",
          "name": "exists",
          "type": "bool"
        }
      ],
      "stateMutability": "view",
      "type": "function"
    },
    {
      "inputs": [
        {
          "internalType": "string",
          "name": "classId",
          "type": "string"
        },
        {
          "internalType": "address",
          "name": "student",
          "type": "address"
        }
      ],
      "name": "hasSubmitted",
      "outputs": [
        {
          "internalType": "bool",
          "name": "submitted",
          "type": "bool"
        }
      ],
      "stateMutability": "view",
      "type": "function"
    },
    {
      "inputs": [
        {
          "internalType": "string",
          "name": "classId",
          "type": "string"
        },
        {
          "internalType": "address",
          "name": "student",
          "type": "address"
        },
        {
          "internalType": "uint256",
          "name": "score",
          "type": "uint256"
        }
      ],
      "name": "recordScore",
      "outputs": [],
      "stateMutability": "nonpayable",
      "type": "function"
    },
    {
      "inputs": [
        {
          "internalType": "string",
          "name": "classId",
          "type": "string"
        }
      ],
      "name": "registerClass",
      "outputs": [],
      "stateMutability": "nonpayable",
      "type": "function"
    },
    {
      "inputs": [
        {
          "internalType": "string",
          "name": "",
          "type": "string"
        }
      ],
      "name": "registeredClasses",
      "outputs": [
        {
          "internalType": "bool",
          "name": "",
          "type": "bool"
        }
      ],
      "stateMutability": "view",
      "type": "function"
    },
    {
      "inputs": [
        {
          "internalType": "string",
          "name": "",
          "type": "string"
        },
        {
          "internalType": "address",
          "name": "",
          "type": "address"
        }
      ],
      "name": "scores",
      "outputs": [
        {
          "internalType": "uint256",
          "name": "score",
          "type": "uint256"
        },
        {
          "internalType": "uint256",
          "name": "recordedAt",
          "type": "uint256"
        },
        {
          "internalType": "address",
          "name": "recordedBy",
          "type": "address"
        }
      ],
      "stateMutability": "view",
      "type": "function"
    },
    {
      "inputs": [
        {
          "internalType": "string",
          "name": "",
          "type": "string"
        },
        {
          "internalType": "address",
          "name": "",
          "type": "address"
        }
      ],
      "name": "submissions",
      "outputs": [
        {
          "internalType": "bytes32",
          "name": "assignmentHash",
          "type": "bytes32"
        },
        {
          "internalType": "uint256",
          "name": "submittedAt",
          "type": "uint256"
        },
        {
          "internalType": "bool",
          "name": "exists",
          "type": "bool"
        }
      ],
      "stateMutability": "view",
      "type": "function"
    },
    {
      "inputs": [
        {
          "internalType": "string",
          "name": "classId",
          "type": "string"
        },
        {
          "internalType": "bytes32",
          "name": "assignmentHash",
          "type": "bytes32"
        }
      ],
      "name": "submitAssignment",
      "outputs": [],
      "stateMutability": "nonpayable",
      "type": "function"
    },
    {
      "inputs": [],
      "name": "teacher",
      "outputs": [
        {
          "internalType": "address",
          "name": "",
          "type": "address"
        }
      ],
      "stateMutability": "view",
      "type": "function"
    }
  ],
  "bytecode": "0x608060405234801561001057600080fd5b50604051610fa5380380610fa583398101604081905261002f9161015b565b6001600160a01b0382166100985760405162461bcd60e51b815260206004820152602560248201527f53636f72654d616e616765723a20496e76616c69642074656163686572206164604482015264647265737360d81b60648201526084015b60405180910390fd5b6001600160a01b0381166101015760405162461bcd60e51b815260206004820152602a60248201527f53636f72654d616e616765723a20496e76616c696420436c6173734d616e61676044820152696572206164647265737360b01b606482015260840161008f565b600580546001600160a01b039384166001600160a01b031991821617909155600280549290931691811682179092556004805490921617905561018e565b80516001600160a01b038116811461015657600080fd5b919050565b6000806040838503121561016e57600080fd5b6101778361013f565b91506101856020840161013f565b90509250929050565b610e088061019d6000396000f3fe608060405234801561001057600080fd5b50600436106100a95760003560e01c806349eaaea51161007157806349eaaea5146101b95780636eff1f54146101cc578063a2be0f9d146101fc578063b46bff891461020f578063dfc9ff2e14610222578063ecc9f64c1461023557600080fd5b8063092a477d146100ae57806313524781146100de5780631e72c1d91461011c5780632d099381146101535780633a75172614610168575b600080fd5b6002546100c1906001600160a01b031681565b6040516001600160a01b0390911681526020015b60405180910390f35b61010c6100ec366004610b19565b805160208183018101805160038252928201919093012091525460ff1681565b60405190151581526020016100d5565b61012f61012a366004610b72565b61027f565b6040805193845260208401929092526001600160a01b0316908201526060016100d5565b610166610161366004610bc0565b6102ec565b005b61012f610176366004610b72565b815160208184018101805160008083529383019583019590952094905292909252815260409020805460018201546002909201549091906001600160a01b031683565b61010c6101c7366004610b72565b610576565b6101df6101da366004610b72565b6105bd565b6040805193845260208401929092521515908201526060016100d5565b61016661020a366004610b19565b61062f565b6005546100c1906001600160a01b031681565b610166610230366004610c05565b610837565b6101df610243366004610b72565b81516020818401810180516001808352938301958301959095209490529290925260009081526040902080549181015460029091015460ff1683565b6000806000806000866040516102959190610c80565b90815260408051602092819003830181206001600160a01b03988916600090815290845282902060608201835280548083526001820154948301859052600290910154909816910181905295979096509350505050565b6004805460405163375e379f60e01b815284926001600160a01b039092169163375e379f9161031d91859101610cc8565b602060405180830381865afa15801561033a573d6000803e3d6000fd5b505050506040513d601f19601f8201168201806040525081019061035e9190610ce2565b6103835760405162461bcd60e51b815260040161037a90610d04565b60405180910390fd5b60048054604051634450702360e11b81526001600160a01b03909116916388a0e046916103b4918791339101610d56565b602060405180830381865afa1580156103d1573d6000803e3d6000fd5b505050506040513d601f19601f820116820180604052508101906103f59190610ce2565b6104595760405162461bcd60e51b815260206004820152602f60248201527f53636f72654d616e616765723a2053747564656e74206e6f7420616c6c6f776560448201526e6420696e207468697320636c61737360881b606482015260840161037a565b816104b45760405162461bcd60e51b815260206004820152602560248201527f53636f72654d616e616765723a20496e76616c69642061737369676e6d656e74604482015264040d0c2e6d60db1b606482015260840161037a565b6040518060600160405280838152602001428152602001600115158152506001846040516104e29190610c80565b9081526040805160209281900383018120336000818152918552908390208551815593850151600185015593909101516002909201805460ff191692151592909217909155610532908590610c80565b60408051918290038220858352426020840152917f57a463a3d4d5ca91f6bdf18441ce818e1d5f434413d76b0d421e9b010749e62c910160405180910390a3505050565b60006001836040516105889190610c80565b908152604080519182900360209081019092206001600160a01b0385166000908152925290206002015460ff16905092915050565b6000806000806001866040516105d39190610c80565b90815260408051602092819003830181206001600160a01b03989098166000908152978352968190206060880182528054808952600182015493890184905260029091015460ff16151597909101879052979096509350505050565b6005546001600160a01b031633146106595760405162461bcd60e51b815260040161037a90610d80565b60008151116106b95760405162461bcd60e51b815260206004820152602660248201527f53636f72654d616e616765723a20436c6173732049442063616e6e6f7420626560448201526520656d70747960d01b606482015260840161037a565b6003816040516106c99190610c80565b9081526040519081900360200190205460ff16156107385760405162461bcd60e51b815260206004820152602660248201527f53636f72654d616e616765723a20436c61737320616c726561647920726567696044820152651cdd195c995960d21b606482015260840161037a565b6004805460405163375e379f60e01b81526001600160a01b039091169163375e379f9161076791859101610cc8565b602060405180830381865afa158015610784573d6000803e3d6000fd5b505050506040513d601f19601f820116820180604052508101906107a89190610ce2565b6107c45760405162461bcd60e51b815260040161037a90610d04565b60016003826040516107d69190610c80565b908152604051908190036020018120805492151560ff19909316929092179091553390610804908390610c80565b604051908190038120907f18c37abd359df05473a7d584fd4452067e6532ceda7d4be3d8b8fc51e9a8923a90600090a350565b6005546001600160a01b031633146108615760405162461bcd60e51b815260040161037a90610d80565b6004805460405163375e379f60e01b815285926001600160a01b039092169163375e379f9161089291859101610cc8565b602060405180830381865afa1580156108af573d6000803e3d6000fd5b505050506040513d601f19601f820116820180604052508101906108d39190610ce2565b6108ef5760405162461bcd60e51b815260040161037a90610d04565b6001600160a01b0383166109535760405162461bcd60e51b815260206004820152602560248201527f53636f72654d616e616765723a20496e76616c69642073747564656e74206164604482015264647265737360d81b606482015260840161037a565b6103e88211156109a55760405162461bcd60e51b815260206004820181905260248201527f53636f72654d616e616765723a2053636f7265206f7574206f662072616e6765604482015260640161037a565b60408051606081018252838152426020820152338183015290516000906109cd908790610c80565b9081526040805191829003602090810183206001600160a01b0380891660008181529284529184902086518155928601516001840155949092015160029091018054919094166001600160a01b031990911617909255339190610a31908790610c80565b60408051918290038220868352426020840152917f03e5f2de61c291f17231e49c87cf5cf16cb353014703d1b1ae7b3989070abce8910160405180910390a450505050565b634e487b7160e01b600052604160045260246000fd5b600082601f830112610a9d57600080fd5b813567ffffffffffffffff80821115610ab857610ab8610a76565b604051601f8301601f19908116603f01168101908282118183101715610ae057610ae0610a76565b81604052838152866020858801011115610af957600080fd5b836020870160208301376000602085830101528094505050505092915050565b600060208284031215610b2b57600080fd5b813567ffffffffffffffff811115610b4257600080fd5b610b4e84828501610a8c565b949350505050565b80356001600160a01b0381168114610b6d57600080fd5b919050565b60008060408385031215610b8557600080fd5b823567ffffffffffffffff811115610b9c57600080fd5b610ba885828601610a8c565b925050610bb760208401610b56565b90509250929050565b60008060408385031215610bd357600080fd5b823567ffffffffffffffff811115610bea57600080fd5b610bf685828601610a8c565b95602094909401359450505050565b600080600060608486031215610c1a57600080fd5b833567ffffffffffffffff811115610c3157600080fd5b610c3d86828701610a8c565b935050610c4c60208501610b56565b9150604084013590509250925092565b60005b83811015610c77578181015183820152602001610c5f565b50506000910152565b60008251610c92818460208701610c5c565b9190910192915050565b60008151808452610cb4816020860160208601610c5c565b601f01601f19169290920160200192915050565b602081526000610cdb6020830184610c9c565b9392505050565b600060208284031215610cf457600080fd5b81518015158114610cdb57600080fd5b60208082526032908201527f53636f72654d616e616765723a20436c61737320646f6573206e6f742065786960408201527139ba1034b71021b630b9b9a6b0b730b3b2b960711b606082015260800190565b604081526000610d696040830185610c9c565b905060018060a01b03831660208301529392505050565b60208082526032908201527f53636f72654d616e616765723a204f6e6c7920746561636865722063616e207060408201527132b93337b936903a3434b99030b1ba34b7b760711b60608201526080019056fea2646970667358221220a16031cbe9d082e85cab569e62a0e13765a878e14371c1c0ecbdba0ca596e75764736f6c63430008130033",
  "linkReferences": {},
  "deployedLinkReferences": {}
}